S012000043617250726F6A6563742E7372656325
S11300000C942A000C9447000C9447000C94930120
S11300100C9447000C9447000C9447000C94470040
S11300200C9447000C9447000C9447000C94470030
S11300300C9447000C9447000C9447000C94470020
S11300400C9447000C9447000C9447000C94470010
S11300500C94470011241FBECFE5D8E0DEBFCDBF0E
S113006010E0A0E6B0E0EEE7FFE002C005900D92DC
S1130070A236B107D9F720E0A2E6B0E001C01D9294
S1130080A739B207E1F70E9449030C94BD070C9409
S113009000000E94D8020E94940063E281E00E9462
S11300A0A40080E008950E94F90280E090E00E949C
S11300B0100380910000909101009C0124513109AA
S11300C020313105D0F0449718F568E282E00E94AF
S11300D0A4002FE785EB91E0215080409040E1F7A8
S11300E000C0000068E281E00E94A4008FE39CE964
S11300F00197F1F700C0000015C068E284E00E9497
S1130100A4008FE19EE40197F1F700C000000AC04B
S113011068E281E00E94A4008FE39CE90197F1F773
S113012000C0000080E0089581E00E94B00182E0F8
S11301300E94B00160E081E00E94740260E082E00D
S11301400E94740280E00895CF93C62F823009F193
S113015028F4882341F0813071F045C0833039F1AF
S1130160843099F140C081E00E94AF0282E00E9495
S1130170AF0280E039C061E081E00E940B0261E0DF
S113018082E00E940B026C2F83E00E948D0280E0CB
S11301902BC062E081E00E940B0262E082E00E94D8
S11301A00B026C2F83E00E948D0280E01DC061E091
S11301B081E00E940B0262E082E00E940B026C2F3D
S11301C082E00E948D0280E00FC061E081E00E9425
S11301D00B0262E082E00E940B026C2F82E00E941C
S11301E08D0280E001C081E0CF9108950F931F93A9
S11301F0CF93DF9300D000D0CDB7DEB7FC010181EF
S11302008081813061F018F0823089F017C08BB79B
S113021080648BBF8FB780688FBF10E010C08BB72E
S113022080688BBF8FB780688FBF10E008C00E94C2
S1130230EE038FB780688FBF10E001C011E009831F
S11302401A821B8287E08C83CE0101960E94550599
S1130250812F0F900F900F900F90DF91CF911F91EE
S11302600F910895CF93DF93EA0160936400813086
S113027079F018F08230B9F048C0662319F0613083
S113028021F043C00E94FA0340C00E94F6033DC01F
S1130290662319F0613021F038C00E94FA0335C09A
S11302A00E94F60332C0611130C080916000823038
S11302B021F40E94F6030E94EE03809160008111F4
S11302C0FCCF60E070E082E00E9497050E94F20398
S11302D00E94FA030E94EE0383E080936000809101
S11302E060008130E1F762E670E082E00E94EE0592
S11302F082E00E94C5050E94F2030E94F6030E9458
S1130300EE0314BC82E080936000809162009091BF
S11303106300A0E0B0E088839983AA83BB8380E074
S1130320DF91CF9108951F920F920FB60F9211246F
S11303308F938AB780628ABF80916000823019F4FB
S11303401092600007C080916000833019F481E04E
S1130350809360008F910F900FBE0F901F9018959F
S1130360E4E7F0E093E090832FEF228330E13183E0
S1130370E7E6F0E09083228330E23183EAE7F0E0BD
S11303809083228334E03183EFE6F0E0908338E019
S11303903183ECE6F0E09083228330E43183E7E7B5
S11303A0F0E09083228390E89183E2E7F0E091E02B
S11303B0908395E09183EAE6F0E022E02083918344
S11303C0813019F0823099F024C084E790E00E94D3
S11303D04E038AE790E00E944E038FE690E00E946D
S11303E04E0382E790E00E94FE0380E0089587E6D2
S11303F090E00E944E038CE690E00E944E0387E753
S113040090E00E944E038AE690E00E94FE0380E0A2
S1130410089581E00895813019F0823081F15EC041
S11304206130A9F018F06230F1F05AC040E060E1A8
S113043083E00E94A00340E064E083E00E94A00304
S113044040E068E083E00E94A00380E008954FEF5D
S113045064E083E00E94A00340E068E083E00E943F
S1130460A00380E0089540E064E083E00E94A003DC
S11304704FEF68E083E00E94A00380E008956130BC
S1130480A9F018F06230F1F02DC040E060E283E0A2
S11304900E94A00340E060E483E00E94A00340E0E7
S11304A060E883E00E94A00380E008954FEF60E4D9
S11304B083E00E94A00340E060E883E00E94A00380
S11304C080E0089540E060E483E00E94A0034FEFE1
S11304D060E883E00E94A00380E0089581E008952D
S11304E080E0089580E00895813019F0823051F061
S11304F012C02AEF30E040E050E080E00E948A041D
S113050080E008952AEF30E040E050E080E00E946F
S11305108A0480E0089581E00895823061F0833098
S113052099F08130D1F42AEF30E040E050E00E94AD
S11305308A0480E008952AEF30E040E050E082E051
S11305400E948A0480E008952AEF30E040E050E001
S113055080E00E948A0480E0089581E0089581305B
S113056019F0823091F022C040E060E183E00E9403
S1130570A00340E064E083E00E94A00340E068E060
S113058083E00E94A00380E0089540E060E283E0FD
S11305900E94A00340E060E483E00E94A00340E0E6
S11305A060E883E00E94A00380E0089581E008955C
S11305B0E2E8F0E081E0808398E091839FEF92830A
S11305C0EFE7F0E0808384E081831282EDE7F0E0DE
S11305D082E08083818382E890E00E944E038FE76B
S11305E090E00E944E038DE790E00E94F60080E0C8
S11305F0089540E068E081E00E94A0034FEF68E0C6
S113060081E00E94A0038FE39CE90197F1F700C009
S1130610000040E068E081E00E94A00380E00895CB
S1130620CF93DF93EC01409165005091660060E048
S113063082E00E943201E0916500F09166008081C1
S11306409181A281B381880F991FAA1FBB1F880FB4
S1130650991FAA1FBB1F880F991FAA1FBB1F880FB2
S1130660991FAA1FBB1FBC01CD01660F771F881FEE
S1130670991F660F771F881F991F2AE330E040E017
S113068050E00E949B073983288380E0DF91CF915B
S113069008950E9449000E945300FDCFFC019281FD
S11306A0218180818130A9F028F0823009F18330E2
S11306B071F13CC09F3F29F48AB3282B2ABB80E008
S11306C00895911135C08AB3209528232ABB80E070
S11306D008959F3F29F487B3282B27BB80E0089512
S11306E0911128C087B32095282327BB80E0089563
S11306F09F3F29F484B3282B24BB80E008959111F3
S11307001BC084B32095282324BB80E008959F3F19
S113071029F481B3282B21BB80E0089591110EC0E8
S113072081B32095282321BB80E0089581E00895BA
S113073080E0089580E0089580E0089580E00895C1
S11307408130A9F028F0823009F1833071F13CC086
S11307504F3F29F48BB3682B6BBB80E008954111A4
S113076035C08BB3609568236BBB80E008954F3F21
S113077029F488B3682B68BB80E00895411128C030
S113078088B36095682368BB80E008954F3F29F4DF
S113079085B3682B65BB80E0089541111BC085B308
S11307A06095682365BB80E008954F3F29F482B3C8
S11307B0682B62BB80E0089541110EC082B360953E
S11307C0682362BB80E0089581E0089580E0089585
S11307D080E0089580E0089580E008958BB78062FA
S11307E08BBF08958BB78F7D8BBF089584B78064CA
S11307F084BF089584B78F7B84BF0895DC013C9146
S1130800EEE8F0E081E080839FEF928388E08183CB
S1130810E8E8F0E023E02083928380E18183E5E847
S1130820F0E02083928380E28183EBE8F0E0208390
S1130830928380E88183AB2B09F468C03230C1F124
S113084018F4313069F064C0333009F459C03430DD
S113085009F05EC08EE890E00E944E0380E00895A7
S113086088E890E00E944E038EB59FB5886192603F
S11308709FBD8EBD8EB59FB590689FBD8EBD8EB554
S11308809FB585609FBD8EBD8CB59DB59DBD8CBD4E
S11308908AB59BB59BBD8ABD88B599B599BD88BD00
S11308A086B597B597BD86BD89B789BF80E00895A1
S11308B085E890E00E944E038EB59FB588619260F2
S11308C09FBD8EBD8EB59FB590629FBD8EBD8EB50A
S11308D09FB585609FBD8EBD8CB59DB59DBD8CBDFE
S11308E08AB59BB59BBD8ABD88B599B599BD88BDB0
S11308F086B597B597BD86BD89B789BF80E0089551
S11309008BE890E00E944E0380E0089581E0089512
S113091081E00895CF92DF92EF92FF920F931F939D
S1130920CF93C62F823009F445C030F4882309F4EC
S11309307DC0813049F006C0833009F471C0843031
S113094009F4AAC081E0A9C0012E1BE0220F331FC5
S1130950441F551F1A95D1F7102D60E074E284EFFF
S113096090E00E949B072150022F10E017BD06BDA6
S11309706C2F70E080E090E00E94A00620E030E060
S113098048EC52E40E94FF056B017C01B801110F91
S1130990880B990B0E94A2069B01AC01C701B6010A
S11309A00E942E070E9471067BBD6ABD79BD68BD99
S11309B080E073C0012E1BE0220F331F441F551F1C
S11309C01A95D1F7102D60E074E284EF90E00E9454
S11309D09B072150022F10E017BD06BD6C2F70E05D
S11309E080E090E00E94A00620E030E048EC52E471
S11309F00E94FF056B017C01B801110F880B990B54
S1130A000E94A2069B01AC01C701B6010E942E07F9
S1130A100E9471067BBD6ABD79BD68BD80E03DC0A2
S1130A208BE890E00E944E0380E037C0012E1BE06B
S1130A30220F331F441F551F1A95D1F7102D60E064
S1130A4074E284EF90E00E949B072150022F10E093
S1130A5017BD06BD6C2F70E080E090E00E94A006F8
S1130A6020E030E048EC52E40E94FF056B017C0179
S1130A70B801110F880B990B0E94A2069B01AC01CF
S1130A80C701B6010E942E070E9471067BBD6ABD94
S1130A9079BD68BD80E001C080E0CF911F910F91C6
S1130AA0FF90EF90DF90CF900895FC01892BD9F14E
S1130AB080818130A1F018F0823029F136C093B7DB
S1130AC08181892B83BF93B78281892B83BF8381E3
S1130AD090E0909392008093910080E008958EB509
S1130AE09FB52181822B9FBD8EBD8EB59FB522817E
S1130AF0822B9FBD8EBD838190E09093960080935E
S1130B00950080E0089595B58181892B85BD95B5C3
S1130B108281892B85BD838190E09093940080939A
S1130B20930080E0089581E0089581E00895813084
S1130B3071F018F08230E9F026C082B7682B62BFEA
S1130B4093B780919100892B83BF80E008958CB581
S1130B509DB5682B792B7DBD6CBD2EB53FB58091BD
S1130B60950090919600822B932B9FBD8EBD80E0C3
S1130B70089584B5682B64BD95B580919300892B45
S1130B8085BD80E0089581E00895813079F018F002
S1130B908230B9F021C083B78E7F83BF83B78D7F46
S1130BA083BF83B78B7F83BF80E008958EB58E7F2C
S1130BB08EBD8EB58D7F8EBD8EB58B7F8EBD80E054
S1130BC0089585B58E7F85BD85B58D7F85BD85B539
S1130BD08B7F85BD80E0089581E00895823068F0C0
S1130BE0823011F081E0089584B5282F30E0FB01B4
S1130BF0318320838CBF80E0089580E008950E94B3
S1130C0013060C94F4060E94ED0658F00E94E606C2
S1130C1040F029F45F3F29F00C94DD0651110C9447
S1130C2028070C94E3060E94050768F39923B1F39F
S1130C30552391F3951B550BBB27AA2762177307FE
S1130C40840738F09F5F5F4F220F331F441FAA1F92
S1130C50A9F335D00E2E3AF0E0E832D0915050404E
S1130C60E695001CCAF72BD0FE2F29D0660F771FFC
S1130C70881FBB1F261737074807AB07B0E809F0E2
S1130C80BB0B802DBF01FF2793585F4F3AF09E3F67
S1130C90510578F00C94DD060C9428075F3FE4F3CB
S1130CA0983ED4F3869577956795B795F7959F5FAA
S1130CB0C9F7880F911D9695879597F90895E1E0F6
S1130CC0660F771F881FBB1F621773078407BA0755
S1130CD020F0621B730B840BBA0BEE1F88F7E095B0
S1130CE008950E940D0788F09F5798F0B92F99270F
S1130CF0B751B0F0E1F0660F771F881F991F1AF003
S1130D00BA95C9F714C0B13091F00E942707B1E039
S1130D1008950C942707672F782F8827B85F39F038
S1130D20B93FCCF3869577956795B395D9F73EF49B
S1130D3090958095709561957F4F8F4F9F4F089543
S1130D40E89409C097FB3EF4909580957095619561
S1130D507F4F8F4F9F4F9923A9F0F92F96E9BB2717
S1130D609395F695879577956795B795F111F8CF93
S1130D70FAF4BB0F11F460FF1BC06F5F7F4F8F4FFE
S1130D809F4F16C0882311F096E911C0772321F0F4
S1130D909EE8872F762F05C0662371F096E8862F8C
S1130DA070E060E02AF09A95660F771F881FDAF7E3
S1130DB0880F9695879597F9089597F99F6780E826
S1130DC070E060E008959FEF80EC089500240A9499
S1130DD01616170618060906089500240A94121612
S1130DE01306140605060895092E0394000C11F445
S1130DF0882352F0BB0F40F4BF2B11F460FF04C0F2
S1130E006F5F7F4F8F4F9F4F089557FD9058440F4A
S1130E10551F59F05F3F71F04795880F97FB991F55
S1130E2061F09F3F79F08795089512161306140612
S1130E30551FF2CF4695F1DF08C01616170618069F
S1130E40991FF1CF86957105610508940895E8947A
S1130E50BB2766277727CB0197F908950E9441079E
S1130E600C94F4060E94E60638F00E94ED0620F089
S1130E70952311F00C94DD060C94E30611240C94D4
S1130E8028070E94050770F3959FC1F3950F50E062
S1130E90551F629FF001729FBB27F00DB11D639F28
S1130EA0AA27F00DB11DAA1F649F6627B00DA11DCE
S1130EB0661F829F2227B00DA11D621F739FB00D74
S1130EC0A11D621F839FA00D611D221F749F3327E4
S1130ED0A00D611D231F849F600D211D822F762F7D
S1130EE06A2F11249F5750409AF0F1F088234AF05A
S1130EF0EE0FFF1FBB1F661F771F881F91505040C6
S1130F00A9F79E3F510580F00C94DD060C94280748
S1130F105F3FE4F3983ED4F3869577956795B7954C
S1130F20F795E7959F5FC1F7FE2B880F911D969566
S1130F30879597F90895A1E21A2EAA1BBB1BFD0100
S1130F400DC0AA1FBB1FEE1FFF1FA217B307E407A4
S1130F50F50720F0A21BB30BE40BF50B661F771FFC
S1130F60881F991F1A9469F76095709580959095DC
S1110F709B01AC01BD01CF010895F894FFCFA1
S1050F7E02006B
S9030000FC
